{
  "_format": "hh-sol-artifact-1",
  "contractName": "TrailProof",
  "sourceName": "contracts/TrailProof.sol",
  "abi": [
    {
      "inputs": [],
      "stateMutability": "nonpayable",
      "type": "constructor"
    },
    {
      "inputs": [
        {
          "internalType": "uint256",
          "name": "score",
          "type": "uint256"
        }
      ],
      "name": "InvalidSafetyScore",
      "type": "error"
    },
    {
      "inputs": [
        {
          "internalType": "address",
          "name": "wallet",
          "type": "address"
        }
      ],
      "name": "TrailProofAlreadyExists",
      "type": "error"
    },
    {
      "inputs": [
        {
          "internalType": "address",
          "name": "wallet",
          "type": "address"
        }
      ],
      "name": "TrailProofNotFound",
      "type": "error"
    },
    {
      "inputs": [],
      "name": "TransferNotAllowed",
      "type": "error"
    },
    {
      "inputs": [],
      "name": "UnauthorizedOperation",
      "type": "error"
    },
    {
      "anonymous": false,
      "inputs": [
        {
          "indexed": false,
          "internalType": "address",
          "name": "previousAdmin",
          "type": "address"
        },
        {
          "indexed": false,
          "internalType": "address",
          "name": "newAdmin",
          "type": "address"
        }
      ],
      "name": "AdminChanged",
      "type": "event"
    },
    {
      "anonymous": false,
      "inputs": [
        {
          "indexed": true,
          "internalType": "address",
          "name": "owner",
          "type": "address"
        },
        {
          "indexed": true,
          "internalType": "address",
          "name": "approved",
          "type": "address"
        },
        {
          "indexed": true,
          "internalType": "uint256",
          "name": "tokenId",
          "type": "uint256"
        }
      ],
      "name": "Approval",
      "type": "event"
    },
    {
      "anonymous": false,
      "inputs": [
        {
          "indexed": true,
          "internalType": "address",
          "name": "owner",
          "type": "address"
        },
        {
          "indexed": true,
          "internalType": "address",
          "name": "operator",
          "type": "address"
        },
        {
          "indexed": false,
          "internalType": "bool",
          "name": "approved",
          "type": "bool"
        }
      ],
      "name": "ApprovalForAll",
      "type": "event"
    },
    {
      "anonymous": false,
      "inputs": [
        {
          "indexed": true,
          "internalType": "address",
          "name": "beacon",
          "type": "address"
        }
      ],
      "name": "BeaconUpgraded",
      "type": "event"
    },
    {
      "anonymous": false,
      "inputs": [
        {
          "indexed": false,
          "internalType": "uint8",
          "name": "version",
          "type": "uint8"
        }
      ],
      "name": "Initialized",
      "type": "event"
    },
    {
      "anonymous": false,
      "inputs": [
        {
          "indexed": true,
          "internalType": "uint256",
          "name": "tokenId",
          "type": "uint256"
        },
        {
          "indexed": false,
          "internalType": "string",
          "name": "metadataURI",
          "type": "string"
        }
      ],
      "name": "MetadataUpdated",
      "type": "event"
    },
    {
      "anonymous": false,
      "inputs": [
        {
          "indexed": false,
          "internalType": "address",
          "name": "account",
          "type": "address"
        }
      ],
      "name": "Paused",
      "type": "event"
    },
    {
      "anonymous": false,
      "inputs": [
        {
          "indexed": true,
          "internalType": "uint256",
          "name": "tokenId",
          "type": "uint256"
        },
        {
          "indexed": false,
          "internalType": "string",
          "name": "questId",
          "type": "string"
        }
      ],
      "name": "QuestCompleted",
      "type": "event"
    },
    {
      "anonymous": false,
      "inputs": [
        {
          "indexed": true,
          "internalType": "uint256",
          "name": "tokenId",
          "type": "uint256"
        },
        {
          "indexed": false,
          "internalType": "uint256",
          "name": "newReferralCount",
          "type": "uint256"
        }
      ],
      "name": "ReferralRecorded",
      "type": "event"
    },
    {
      "anonymous": false,
      "inputs": [
        {
          "indexed": true,
          "internalType": "uint256",
          "name": "tokenId",
          "type": "uint256"
        },
        {
          "indexed": false,
          "internalType": "uint256",
          "name": "newReviewCount",
          "type": "uint256"
        }
      ],
      "name": "ReviewSubmitted",
      "type": "event"
    },
    {
      "anonymous": false,
      "inputs": [
        {
          "indexed": true,
          "internalType": "bytes32",
          "name": "role",
          "type": "bytes32"
        },
        {
          "indexed": true,
          "internalType": "bytes32",
          "name": "previousAdminRole",
          "type": "bytes32"
        },
        {
          "indexed": true,
          "internalType": "bytes32",
          "name": "newAdminRole",
          "type": "bytes32"
        }
      ],
      "name": "RoleAdminChanged",
      "type": "event"
    },
    {
      "anonymous": false,
      "inputs": [
        {
          "indexed": true,
          "internalType": "bytes32",
          "name": "role",
          "type": "bytes32"
        },
        {
          "indexed": true,
          "internalType": "address",
          "name": "account",
          "type": "address"
        },
        {
          "indexed": true,
          "internalType": "address",
          "name": "sender",
          "type": "address"
        }
      ],
      "name": "RoleGranted",
      "type": "event"
    },
    {
      "anonymous": false,
      "inputs": [
        {
          "indexed": true,
          "internalType": "bytes32",
          "name": "role",
          "type": "bytes32"
        },
        {
          "indexed": true,
          "internalType": "address",
          "name": "account",
          "type": "address"
        },
        {
          "indexed": true,
          "internalType": "address",
          "name": "sender",
          "type": "address"
        }
      ],
      "name": "RoleRevoked",
      "type": "event"
    },
    {
      "anonymous": false,
      "inputs": [
        {
          "indexed": true,
          "internalType": "uint256",
          "name": "tokenId",
          "type": "uint256"
        },
        {
          "indexed": false,
          "internalType": "uint256",
          "name": "newScore",
          "type": "uint256"
        }
      ],
      "name": "SafetyScoreUpdated",
      "type": "event"
    },
    {
      "anonymous": false,
      "inputs": [
        {
          "indexed": true,
          "internalType": "address",
          "name": "to",
          "type": "address"
        },
        {
          "indexed": true,
          "internalType": "uint256",
          "name": "tokenId",
          "type": "uint256"
        },
        {
          "indexed": false,
          "internalType": "string",
          "name": "metadataURI",
          "type": "string"
        }
      ],
      "name": "TrailProofMinted",
      "type": "event"
    },
    {
      "anonymous": false,
      "inputs": [
        {
          "indexed": true,
          "internalType": "address",
          "name": "from",
          "type": "address"
        },
        {
          "indexed": true,
          "internalType": "address",
          "name": "to",
          "type": "address"
        },
        {
          "indexed": true,
          "internalType": "uint256",
          "name": "tokenId",
          "type": "uint256"
        }
      ],
      "name": "Transfer",
      "type": "event"
    },
    {
      "anonymous": false,
      "inputs": [
        {
          "indexed": true,
          "internalType": "uint256",
          "name": "tokenId",
          "type": "uint256"
        },
        {
          "indexed": false,
          "internalType": "uint256",
          "name": "newTripCount",
          "type": "uint256"
        }
      ],
      "name": "TripRecorded",
      "type": "event"
    },
    {
      "anonymous": false,
      "inputs": [
        {
          "indexed": false,
          "internalType": "address",
          "name": "account",
          "type": "address"
        }
      ],
      "name": "Unpaused",
      "type": "event"
    },
    {
      "anonymous": false,
      "inputs": [
        {
          "indexed": true,
          "internalType": "address",
          "name": "implementation",
          "type": "address"
        }
      ],
      "name": "Upgraded",
      "type": "event"
    },
    {
      "inputs": [],
      "name": "ADMIN_ROLE",
      "outputs": [
        {
          "internalType": "bytes32",
          "name": "",
          "type": "bytes32"
        }
      ],
      "stateMutability": "view",
      "type": "function"
    },
    {
      "inputs": [],
      "name": "DEFAULT_ADMIN_ROLE",
      "outputs": [
        {
          "internalType": "bytes32",
          "name": "",
          "type": "bytes32"
        }
      ],
      "stateMutability": "view",
      "type": "function"
    },
    {
      "inputs": [],
      "name": "MINTER_ROLE",
      "outputs": [
        {
          "internalType": "bytes32",
          "name": "",
          "type": "bytes32"
        }
      ],
      "stateMutability": "view",
      "type": "function"
    },
    {
      "inputs": [],
      "name": "UPGRADER_ROLE",
      "outputs": [
        {
          "internalType": "bytes32",
          "name": "",
          "type": "bytes32"
        }
      ],
      "stateMutability": "view",
      "type": "function"
    },
    {
      "inputs": [
        {
          "internalType": "address",
          "name": "to",
          "type": "address"
        },
        {
          "internalType": "uint256",
          "name": "tokenId",
          "type": "uint256"
        }
      ],
      "name": "approve",
      "outputs": [],
      "stateMutability": "nonpayable",
      "type": "function"
    },
    {
      "inputs": [
        {
          "internalType": "address",
          "name": "owner",
          "type": "address"
        }
      ],
      "name": "balanceOf",
      "outputs": [
        {
          "internalType": "uint256",
          "name": "",
          "type": "uint256"
        }
      ],
      "stateMutability": "view",
      "type": "function"
    },
    {
      "inputs": [
        {
          "internalType": "uint256",
          "name": "tokenId",
          "type": "uint256"
        },
        {
          "internalType": "string",
          "name": "questId",
          "type": "string"
        }
      ],
      "name": "completeQuest",
      "outputs": [],
      "stateMutability": "nonpayable",
      "type": "function"
    },
    {
      "inputs": [
        {
          "internalType": "uint256",
          "name": "tokenId",
          "type": "uint256"
        }
      ],
      "name": "generateMetadataJSON",
      "outputs": [
        {
          "internalType": "string",
          "name": "",
          "type": "string"
        }
      ],
      "stateMutability": "view",
      "type": "function"
    },
    {
      "inputs": [
        {
          "internalType": "uint256",
          "name": "tokenId",
          "type": "uint256"
        }
      ],
      "name": "getApproved",
      "outputs": [
        {
          "internalType": "address",
          "name": "",
          "type": "address"
        }
      ],
      "stateMutability": "view",
      "type": "function"
    },
    {
      "inputs": [
        {
          "internalType": "uint256",
          "name": "tokenId",
          "type": "uint256"
        }
      ],
      "name": "getMetadata",
      "outputs": [
        {
          "components": [
            {
              "internalType": "uint256",
              "name": "tripCount",
              "type": "uint256"
            },
            {
              "internalType": "uint256",
              "name": "reviewCount",
              "type": "uint256"
            },
            {
              "internalType": "uint256",
              "name": "safetyScore",
              "type": "uint256"
            },
            {
              "internalType": "uint256",
              "name": "referralCount",
              "type": "uint256"
            },
            {
              "internalType": "string[]",
              "name": "completedQuests",
              "type": "string[]"
            },
            {
              "internalType": "string",
              "name": "metadataURI",
              "type": "string"
            },
            {
              "internalType": "uint256",
              "name": "lastUpdated",
              "type": "uint256"
            }
          ],
          "internalType": "struct TrailProof.TrailProofMetadata",
          "name": "",
          "type": "tuple"
        }
      ],
      "stateMutability": "view",
      "type": "function"
    },
    {
      "inputs": [
        {
          "internalType": "bytes32",
          "name": "role",
          "type": "bytes32"
        }
      ],
      "name": "getRoleAdmin",
      "outputs": [
        {
          "internalType": "bytes32",
          "name": "",
          "type": "bytes32"
        }
      ],
      "stateMutability": "view",
      "type": "function"
    },
    {
      "inputs": [
        {
          "internalType": "address",
          "name": "wallet",
          "type": "address"
        }
      ],
      "name": "getTokenId",
      "outputs": [
        {
          "internalType": "uint256",
          "name": "",
          "type": "uint256"
        }
      ],
      "stateMutability": "view",
      "type": "function"
    },
    {
      "inputs": [
        {
          "internalType": "uint256",
          "name": "tokenId",
          "type": "uint256"
        }
      ],
      "name": "getWallet",
      "outputs": [
        {
          "internalType": "address",
          "name": "",
          "type": "address"
        }
      ],
      "stateMutability": "view",
      "type": "function"
    },
    {
      "inputs": [
        {
          "internalType": "bytes32",
          "name": "role",
          "type": "bytes32"
        },
        {
          "internalType": "address",
          "name": "account",
          "type": "address"
        }
      ],
      "name": "grantRole",
      "outputs": [],
      "stateMutability": "nonpayable",
      "type": "function"
    },
    {
      "inputs": [
        {
          "internalType": "bytes32",
          "name": "role",
          "type": "bytes32"
        },
        {
          "internalType": "address",
          "name": "account",
          "type": "address"
        }
      ],
      "name": "hasRole",
      "outputs": [
        {
          "internalType": "bool",
          "name": "",
          "type": "bool"
        }
      ],
      "stateMutability": "view",
      "type": "function"
    },
    {
      "inputs": [
        {
          "internalType": "string",
          "name": "name",
          "type": "string"
        },
        {
          "internalType": "string",
          "name": "symbol",
          "type": "string"
        },
        {
          "internalType": "string",
          "name": "baseTokenURI",
          "type": "string"
        },
        {
          "internalType": "address",
          "name": "admin",
          "type": "address"
        }
      ],
      "name": "initialize",
      "outputs": [],
      "stateMutability": "nonpayable",
      "type": "function"
    },
    {
      "inputs": [
        {
          "internalType": "address",
          "name": "owner",
          "type": "address"
        },
        {
          "internalType": "address",
          "name": "operator",
          "type": "address"
        }
      ],
      "name": "isApprovedForAll",
      "outputs": [
        {
          "internalType": "bool",
          "name": "",
          "type": "bool"
        }
      ],
      "stateMutability": "view",
      "type": "function"
    },
    {
      "inputs": [
        {
          "internalType": "address",
          "name": "to",
          "type": "address"
        },
        {
          "internalType": "string",
          "name": "metadataURI",
          "type": "string"
        }
      ],
      "name": "mint",
      "outputs": [],
      "stateMutability": "nonpayable",
      "type": "function"
    },
    {
      "inputs": [],
      "name": "name",
      "outputs": [
        {
          "internalType": "string",
          "name": "",
          "type": "string"
        }
      ],
      "stateMutability": "view",
      "type": "function"
    },
    {
      "inputs": [
        {
          "internalType": "uint256",
          "name": "tokenId",
          "type": "uint256"
        }
      ],
      "name": "ownerOf",
      "outputs": [
        {
          "internalType": "address",
          "name": "",
          "type": "address"
        }
      ],
      "stateMutability": "view",
      "type": "function"
    },
    {
      "inputs": [],
      "name": "pause",
      "outputs": [],
      "stateMutability": "nonpayable",
      "type": "function"
    },
    {
      "inputs": [],
      "name": "paused",
      "outputs": [
        {
          "internalType": "bool",
          "name": "",
          "type": "bool"
        }
      ],
      "stateMutability": "view",
      "type": "function"
    },
    {
      "inputs": [],
      "name": "proxiableUUID",
      "outputs": [
        {
          "internalType": "bytes32",
          "name": "",
          "type": "bytes32"
        }
      ],
      "stateMutability": "view",
      "type": "function"
    },
    {
      "inputs": [
        {
          "internalType": "uint256",
          "name": "tokenId",
          "type": "uint256"
        }
      ],
      "name": "recordReferral",
      "outputs": [],
      "stateMutability": "nonpayable",
      "type": "function"
    },
    {
      "inputs": [
        {
          "internalType": "uint256",
          "name": "tokenId",
          "type": "uint256"
        }
      ],
      "name": "recordReview",
      "outputs": [],
      "stateMutability": "nonpayable",
      "type": "function"
    },
    {
      "inputs": [
        {
          "internalType": "uint256",
          "name": "tokenId",
          "type": "uint256"
        }
      ],
      "name": "recordTrip",
      "outputs": [],
      "stateMutability": "nonpayable",
      "type": "function"
    },
    {
      "inputs": [
        {
          "internalType": "bytes32",
          "name": "role",
          "type": "bytes32"
        },
        {
          "internalType": "address",
          "name": "account",
          "type": "address"
        }
      ],
      "name": "renounceRole",
      "outputs": [],
      "stateMutability": "nonpayable",
      "type": "function"
    },
    {
      "inputs": [
        {
          "internalType": "bytes32",
          "name": "role",
          "type": "bytes32"
        },
        {
          "internalType": "address",
          "name": "account",
          "type": "address"
        }
      ],
      "name": "revokeRole",
      "outputs": [],
      "stateMutability": "nonpayable",
      "type": "function"
    },
    {
      "inputs": [
        {
          "internalType": "address",
          "name": "from",
          "type": "address"
        },
        {
          "internalType": "address",
          "name": "to",
          "type": "address"
        },
        {
          "internalType": "uint256",
          "name": "tokenId",
          "type": "uint256"
        }
      ],
      "name": "safeTransferFrom",
      "outputs": [],
      "stateMutability": "nonpayable",
      "type": "function"
    },
    {
      "inputs": [
        {
          "internalType": "address",
          "name": "from",
          "type": "address"
        },
        {
          "internalType": "address",
          "name": "to",
          "type": "address"
        },
        {
          "internalType": "uint256",
          "name": "tokenId",
          "type": "uint256"
        },
        {
          "internalType": "bytes",
          "name": "data",
          "type": "bytes"
        }
      ],
      "name": "safeTransferFrom",
      "outputs": [],
      "stateMutability": "nonpayable",
      "type": "function"
    },
    {
      "inputs": [
        {
          "internalType": "address",
          "name": "operator",
          "type": "address"
        },
        {
          "internalType": "bool",
          "name": "approved",
          "type": "bool"
        }
      ],
      "name": "setApprovalForAll",
      "outputs": [],
      "stateMutability": "nonpayable",
      "type": "function"
    },
    {
      "inputs": [
        {
          "internalType": "bytes4",
          "name": "interfaceId",
          "type": "bytes4"
        }
      ],
      "name": "supportsInterface",
      "outputs": [
        {
          "internalType": "bool",
          "name": "",
          "type": "bool"
        }
      ],
      "stateMutability": "view",
      "type": "function"
    },
    {
      "inputs": [],
      "name": "symbol",
      "outputs": [
        {
          "internalType": "string",
          "name": "",
          "type": "string"
        }
      ],
      "stateMutability": "view",
      "type": "function"
    },
    {
      "inputs": [
        {
          "internalType": "uint256",
          "name": "",
          "type": "uint256"
        }
      ],
      "name": "tokenIdToWallet",
      "outputs": [
        {
          "internalType": "address",
          "name": "",
          "type": "address"
        }
      ],
      "stateMutability": "view",
      "type": "function"
    },
    {
      "inputs": [
        {
          "internalType": "uint256",
          "name": "",
          "type": "uint256"
        }
      ],
      "name": "tokenMetadata",
      "outputs": [
        {
          "internalType": "uint256",
          "name": "tripCount",
          "type": "uint256"
        },
        {
          "internalType": "uint256",
          "name": "reviewCount",
          "type": "uint256"
        },
        {
          "internalType": "uint256",
          "name": "safetyScore",
          "type": "uint256"
        },
        {
          "internalType": "uint256",
          "name": "referralCount",
          "type": "uint256"
        },
        {
          "internalType": "string",
          "name": "metadataURI",
          "type": "string"
        },
        {
          "internalType": "uint256",
          "name": "lastUpdated",
          "type": "uint256"
        }
      ],
      "stateMutability": "view",
      "type": "function"
    },
    {
      "inputs": [
        {
          "internalType": "uint256",
          "name": "tokenId",
          "type": "uint256"
        }
      ],
      "name": "tokenURI",
      "outputs": [
        {
          "internalType": "string",
          "name": "",
          "type": "string"
        }
      ],
      "stateMutability": "view",
      "type": "function"
    },
    {
      "inputs": [
        {
          "internalType": "address",
          "name": "from",
          "type": "address"
        },
        {
          "internalType": "address",
          "name": "to",
          "type": "address"
        },
        {
          "internalType": "uint256",
          "name": "tokenId",
          "type": "uint256"
        }
      ],
      "name": "transferFrom",
      "outputs": [],
      "stateMutability": "nonpayable",
      "type": "function"
    },
    {
      "inputs": [],
      "name": "unpause",
      "outputs": [],
      "stateMutability": "nonpayable",
      "type": "function"
    },
    {
      "inputs": [
        {
          "internalType": "uint256",
          "name": "tokenId",
          "type": "uint256"
        },
        {
          "internalType": "string",
          "name": "metadataURI",
          "type": "string"
        }
      ],
      "name": "updateMetadata",
      "outputs": [],
      "stateMutability": "nonpayable",
      "type": "function"
    },
    {
      "inputs": [
        {
          "internalType": "uint256",
          "name": "tokenId",
          "type": "uint256"
        },
        {
          "internalType": "uint256",
          "name": "newScore",
          "type": "uint256"
        }
      ],
      "name": "updateSafetyScore",
      "outputs": [],
      "stateMutability": "nonpayable",
      "type": "function"
    },
    {
      "inputs": [
        {
          "internalType": "address",
          "name": "newImplementation",
          "type": "address"
        }
      ],
      "name": "upgradeTo",
      "outputs": [],
      "stateMutability": "nonpayable",
      "type": "function"
    },
    {
      "inputs": [
        {
          "internalType": "address",
          "name": "newImplementation",
          "type": "address"
        },
        {
          "internalType": "bytes",
          "name": "data",
          "type": "bytes"
        }
      ],
      "name": "upgradeToAndCall",
      "outputs": [],
      "stateMutability": "payable",
      "type": "function"
    },
    {
      "inputs": [
        {
          "internalType": "address",
          "name": "",
          "type": "address"
        }
      ],
      "name": "walletToTokenId",
      "outputs": [
        {
          "internalType": "uint256",
          "name": "",
          "type": "uint256"
        }
      ],
      "stateMutability": "view",
      "type": "function"
    }
  ],
  "bytecode": "0x60a08060405234620000e157306080526000549060ff8260081c166200008f575060ff8082160362000053575b60405161399b9081620000e78239608051818181611f560152818161204501526123480152f35b60ff90811916176000557f7f26b83ff96e1f2b6a682f133852f6798a09c465da95921460cefb3847402498602060405160ff8152a1386200002c565b62461bcd60e51b815260206004820152602760248201527f496e697469616c697a61626c653a20636f6e747261637420697320696e697469604482015266616c697a696e6760c81b6064820152608490fd5b600080fdfe608080604052600436101561001357600080fd5b60003560e01c90816301ffc9a7146127585750806306fdde03146126b2578063081812fc1461265b578063095ea7b31461264257806323b872dd1461228a578063248a9ca3146126135780632f2ff15d1461257257806336568abe146124e05780633659cfe6146123235780633f4ba83a1461228f57806342842e0e1461228a5780634f1ef2861461200757806352d1902d14611f4357806353c8388e14611ec75780635470b13b14611e92578063547dd15714611e925780635c6d8da1146117325780635c975abb1461170f5780636352211e146116d05780636914db601461165457806370a08231146115bd578063756587451461151b57806375b238fc146114e05780638456cb591461148657806391d148541461143957806395d89b411461136b5780639c2806c714610362578063a217fddf1461134f578063a22cb46514611318578063a574cea414611153578063a60d3ee9146110b1578063b88d4fde1461105c578063bcf8226514610a32578063c87b56dd146109c1578063d0def521146105e4578063d5391393146105a9578063d547741f14610568578063d8994268146104bd578063e5cb60a2146103f3578063e985e9c51461039d578063f153768614610362578063f72c0d8b146103275763fdeacd23146101f857600080fd5b346103225761020636612981565b61020e612def565b6102166135e2565b6000828152606760205260409020546001600160a01b0316156102f357816000526101929081602052600460406000200190815492600160401b8410156102dd57600184018084558410156102c75761029d827f424571c7d095820252295e9932c8a212cd42b1dfc887fccbda0648c942d70798956102c295600052602060002001613442565b8460005260205242600660406000200155604051918291602083526020830190612800565b0390a2005b634e487b7160e01b600052603260045260246000fd5b634e487b7160e01b600052604160045260246000fd5b50600052610193602052602460018060a01b03604060002054166040519063821b656560e01b82526004820152fd5b600080fd5b346103225760003660031901126103225760206040517f189ab7a9244df0848122154315af71fe140f3db0fe014031783b0946b8c9d2e38152f35b34610322576020366003190112610322576001600160a01b03610383612825565b166000526101916020526020604060002054604051908152f35b34610322576040366003190112610322576103b6612825565b6103be61283b565b9060018060a01b03809116600052606a60205260406000209116600052602052602060ff604060002054166040519015158152f35b346103225760203660031901126103225760043561040f612def565b6104176135e2565b6000818152606760205260409020546001600160a01b03161561048f578060005261019280602052604060002061044e81546135a6565b9055816000526020527f67a0088461ce6a64f69b16e3cf9d537a12cd8e8cd395db4447bc4fd5fa3588d06020604060002042600682015554604051908152a2005b600052610193602052602460018060a01b03604060002054166040519063821b656560e01b82526004820152fd5b34610322576040366003190112610322576004356024356104dc612def565b6104e46135e2565b6000828152606760205260409020546001600160a01b0316156102f357606481116105505760207f3515926d9dca984f6daaef6236b63b22ae131656b8680828b868741b5a201a2c918360005261019282526040600020816002820155600642910155604051908152a2005b60249060405190634558b01560e11b82526004820152fd5b34610322576040366003190112610322576105a760043561058761283b565b908060005260976020526105a2600160406000200154612f34565b61303f565b005b346103225760003660031901126103225760206040517f9f2df0fed2c77648de5860a4cc508cd0818c85b8b8a1ab4ceeef8d981c8956a68152f35b34610322576040366003190112610322576105fd612825565b6024356001600160401b0381116103225761061c90369060040161293a565b90610625612def565b61062d6135e2565b600260fb541461097c57600260fb5560018060a01b03811680600052610191926020848152604060002054610963576101949384549461066c866135a6565b90556040519561067b876128ad565b600087528415610920576000868152606760205260409020546106aa906001600160a01b031615155b15613679565b6000868152606760205260409020546106cd906001600160a01b031615156106a4565b846000526068835261073c6040600020976001988981540190558760005260678552876040600020946bffffffffffffffffffffffff60a01b958987825416179055818960007fddf252ad1be2c89b69c2b068fc378daa952ba7f163c4a11628f55a4df523b3ef8180a46136c5565b15610903578460005282528460406000205584600052610193825283604060002091825416179055604051610770816128ad565b600081526040519061078182612892565b60008252828201906000825260408301906032825260608401600081526080850191825260a085019287845260c08601944286528a6000526101928852604060002096518755518b870155516002860155516003850155600484019051805191600160401b83116102dd57868b928254858455808610610884575b500190600052866000206000915b84831061086957838c8c7f965f8970ae5eb1eb1ae4d2408e7ece57ecf382a05ab6cfc542ce6f91fd4a2a708d8d8d60068e6108498f5160058501613442565b51910155610861604051928284938452830190612800565b0390a360fb55005b83898261087883945186613442565b0192019201919061080a565b8360005284868460002092830192015b8281106108a25750506107fc565b90919293506108b181546129b3565b806108c3575b500190848a9392610894565b601f908c8282116001146108df57505050600081555b8f6108b7565b6000926108fa918585528420920160051c820185830161342b565b818355556108d9565b60405162461bcd60e51b81528061091c60048201613626565b0390fd5b6064836040519062461bcd60e51b825280600483015260248201527f4552433732313a206d696e7420746f20746865207a65726f20616464726573736044820152fd5b604051630b1b3b8160e41b815260048101849052602490fd5b60405162461bcd60e51b815260206004820152601f60248201527f5265656e7472616e637947756172643a207265656e7472616e742063616c6c006044820152606490fd5b34610322576020366003190112610322576004356000908152606760205260409020546109f8906001600160a01b03161515613207565b6000604051610a06816128ad565b52610a2e604051610a16816128ad565b60008152604051918291602083526020830190612800565b0390f35b3461032257602036600319011261032257600435600052610192602052604060002060405190610a6182612892565b80548252600181015460208301526002810154604083015260038101546060830152600481018054610a92816135cb565b91610aa060405193846128fe565b818352602083019060005260206000206000915b83831061103f5786600687876080840152610ad1600582016129ed565b60a0840152015460c0820152604051604081018181106001600160401b038211176102dd5760405260018152605b60f81b6020820152906000915b608082015151831015610bd95782610b9d575b60808201519081518410156102c757610b9160226020610b97948760051b010151926040519381610b5a8693518092602080870191016127dd565b8201601160f91b90816020820152825190610b7e82602195602087850191016127dd565b01918201520360028101845201826128fe565b926135a6565b91610b0c565b610bd4602160405183610bba8295518092602080860191016127dd565b8101600b60fa1b60208201520360018101845201826128fe565b610b1f565b610c10602160405183610bf68295518092602080860191016127dd565b8101605d60f81b60208201520360018101845201826128fe565b610c1b6004356137bd565b91610c276004356137bd565b91610c3282516137bd565b91610c4060208201516137bd565b91610c4e60408301516137bd565b91610c6960c0610c6160608401516137bd565b9201516137bd565b94604051967f7b226e616d65223a225863656c5472697020547261696c50726f6f66202300006020890152610ca88951809a6020603e8c0191016127dd565b61088b60f21b888a01603e8101919091527f226465736372697074696f6e223a22536f756c626f756e6420746f6b656e207260408201527f6570726573656e74696e672074726176656c2072657075746174696f6e20616e60608201526f19081858da1a595d995b595b9d1cc88b60821b6080820152681134b6b0b3b2911d1160b91b6090909101526101955460009990610d42816129b3565b90600181169081156110145750600114610faf575b505093610f9b9693607d60f81b93610103979360208c610d818a610a2e9f8f9c51948592016127dd565b650b9c1b99c88b60d21b91019081526d2261747472696275746573223a5b60901b60068201527f7b2274726169745f74797065223a225472697020436f756e74222c2276616c7560148201526232911d60e91b6034820152815191610def90839060378401906020016127dd565b0192611f4b60f21b948560378601527f7b2274726169745f74797065223a2252657669657720436f756e74222c227661603986015264363ab2911d60d91b94856059820152610e48825180936020605e850191016127dd565b0185605e8201527f7b2274726169745f74797065223a225361666574792053636f7265222c2276616060820152846080820152610e8f8251809360206085850191016127dd565b018460858201527f7b2274726169745f74797065223a22526566657272616c20436f756e74222c226087820152663b30b63ab2911d60c91b60a7820152610ee082518093602060ae850191016127dd565b018360ae8201527f7b2274726169745f74797065223a22436f6d706c65746564205175657374732260b08201526816113b30b63ab2911d60b91b60d0820152610f3382518093602060d9850191016127dd565b019160d98301527f7b2274726169745f74797065223a224c6173742055706461746564222c22766160db83015260fb820152825190610f7c8261010095602087850191016127dd565b0191820152615d7d60f01b6101018201520360e38101845201826128fe565b604051918291602083526020830190612800565b9099506101956000527f54034dca961b61bc2a3147cc0c1986762915b42723ed64155364f17a2e2967706000905b828210610ffb5750509888019098016099019783607d60f81b610d57565b80548c8c01830160990152602090910190600101610fdd565b60ff1916928b016099818101949094528215159092029091019091019950849050607d60f81b610d57565b60016020819261104e856129ed565b815201920192019190610ab4565b3461032257608036600319011261032257611075612825565b5061107e61283b565b506064356001600160401b0381116103225761109e90369060040161293a565b50604051638cd22d1960e01b8152600490fd5b34610322576020366003190112610322576004356110cd612def565b6110d56135e2565b6000818152606760205260409020546001600160a01b03161561048f578060005261019280602052600160406000200161110f81546135a6565b9055816000526020527f29362c37af563cab980566e2155584cb983c0fe680bbecdde9d06e3926f9b4f36020600160406000204260068201550154604051908152a2005b346103225760208060031936011261032257600060c060405161117581612892565b828152828482015282604082015282606082015260606080820152606060a08201520152600435600052610192815260406000206040516111b581612892565b81548152600190818301549284820193845260028101549460408301958652600382015493606084019485526004830180546111f0816135cb565b916111fe60405193846128fe565b81835260009081528481208584015b8383106112ea575050505060808501908152600661122d600586016129ed565b9460a0870195865201549560c08601968752604051988998858a526101008a019751868b01525160408a0152516060890152516080880152519360e060a088015284518091526101209280848901948360051b8a01019601936000905b8382106112b65789808a6112ab8b8b51601f198583030160c0860152612800565b905160e08301520390f35b91806112d686989982979496989b9c61011f199082030186528b51612800565b99019201920189989796959391949261128a565b94808781999a989b96976113009d9e9d856129ed565b8152019201920191909a999a9895979694939861120d565b3461032257604036600319011261032257611331612825565b506024358015150361032257604051638cd22d1960e01b8152600490fd5b3461032257600036600319011261032257602060405160008152f35b3461032257600036600319011261032257604051600060665461138d816129b3565b8084529060019081811690811561141257506001146113b7575b610a2e84610f9b818603826128fe565b6066600090815292507f46501879b8ca8525e8c2fd519e2fbfcfa2ebea26501294aa02cbfcfb12e943545b8284106113fa575050508101602001610f9b826113a7565b805460208587018101919091529093019281016113e2565b60ff191660208087019190915292151560051b85019092019250610f9b91508390506113a7565b346103225760403660031901126103225761145261283b565b600435600052609760205260406000209060018060a01b0316600052602052602060ff604060002054166040519015158152f35b346103225760003660031901126103225761149f612caa565b6114a76135e2565b600160ff1960c954161760c9557f62e78cea01bee320cd4e420270b5ea74000d11b0c9f74754ebdbfc544b05a2586020604051338152a1005b346103225760003660031901126103225760206040517fa49807205ce4d355092ef5a8a18f56e8913cf4a201fbe287825b095693c217758152f35b3461032257602036600319011261032257600435611537612def565b61153f6135e2565b6000818152606760205260409020546001600160a01b03161561048f578060005261019280602052600360406000200161157981546135a6565b9055816000526020527f4cf3361dd04c7ff0d29998ff70be2956175d332f9513184ce58e224d9b8f717f6020600360406000204260068201550154604051908152a2005b34610322576020366003190112610322576001600160a01b036115de612825565b1680156115fd5760005260686020526020604060002054604051908152f35b60405162461bcd60e51b815260206004820152602960248201527f4552433732313a2061646472657373207a65726f206973206e6f7420612076616044820152683634b21037bbb732b960b91b6064820152608490fd5b3461032257602036600319011261032257600435600052610192602052604060002080546001820154916116c66002820154916003810154600661169a600584016129ed565b92015493604051968796875260208701526040860152606085015260c0608085015260c0840190612800565b9060a08301520390f35b34610322576020366003190112610322576004356000526067602052602060018060a01b0360406000205416611707811515613207565b604051908152f35b3461032257600036600319011261032257602060ff60c954166040519015158152f35b34610322576080366003190112610322576001600160401b036004358181116103225761176390369060040161293a565b6024358281116103225761177b90369060040161293a565b916044358181116103225761179490369060040161293a565b6064356001600160a01b0381169190829003610322576000549260ff8460081c161594858096611e85575b8015611e6e575b15611e125760019660ff1995878988831617600055611e00575b506117fb60ff60005460081c166117f681613546565b613546565b81518381116102dd57806118106065546129b3565b93601f94858111611db3575b50602090858311600114611d3157600092611d26575b5050600019600383901b1c191690891b176065555b8051908382116102dd57819061185e6066546129b3565b848111611cd9575b50602090848311600114611c5757600092611c4c575b5050600019600383901b1c191690881b176066555b6118db60ff60005460081c166118a681613546565b6118af81613546565b6118b881613546565b8660c9541660c9556118c981613546565b6118d281613546565b8860fb55613546565b82519182116102dd578190610195936118f485546129b3565b828111611bf6575b506020918311600114611b7657600092611b6b575b5050600019600383901b1c191690861b1790555b61019484905560008181527f683723e34a772b6e4f2c919bba7fa32ed8ea11a8325f54da7db716e9d9dd98c760205260409020546097929060ff1615611b2f575b7fa49807205ce4d355092ef5a8a18f56e8913cf4a201fbe287825b095693c21775806000528360205260406000208360005260205260ff6040600020541615611af2575b507f9f2df0fed2c77648de5860a4cc508cd0818c85b8b8a1ab4ceeef8d981c8956a6806000528360205260406000208360005260205260ff6040600020541615611ab5575b507f189ab7a9244df0848122154315af71fe140f3db0fe014031783b0946b8c9d2e392836000528060205260406000208360005260205260ff6040600020541615611a77575b50505050611a3f57005b60207f7f26b83ff96e1f2b6a682f133852f6798a09c465da95921460cefb38474024989161ff001960005416600055604051908152a1005b83600052602052604060002082600052602052846040600020918254161790553391600080516020613926833981519152600080a482808080611a35565b806000528360205260406000208360005260205260406000208683825416179055823391600080516020613926833981519152600080a4856119ef565b806000528360205260406000208360005260205260406000208683825416179055823391600080516020613926833981519152600080a4856119aa565b600080528260205260406000208260005260205260406000208582825416179055338260006000805160206139268339815191528180a4611966565b015190508780611911565b90889350601f19831691856000527f54034dca961b61bc2a3147cc0c1986762915b42723ed64155364f17a2e2967709260005b818110611bde57508411611bc5575b505050811b019055611925565b015160001960f88460031b161c19169055878080611bb8565b8284015185558b969094019360209384019301611ba9565b611c3d90866000527f54034dca961b61bc2a3147cc0c1986762915b42723ed64155364f17a2e2967708480870160051c82019260208810611c43575b0160051c019061342b565b896118fc565b92508192611c32565b01519050898061187c565b908a9350601f1983169160666000527f46501879b8ca8525e8c2fd519e2fbfcfa2ebea26501294aa02cbfcfb12e943549260005b818110611cc157508411611ca8575b505050811b01606655611891565b015160001960f88460031b161c19169055898080611c9a565b8284015185558d969094019360209384019301611c8b565b611d209060666000527f46501879b8ca8525e8c2fd519e2fbfcfa2ebea26501294aa02cbfcfb12e943548680860160051c82019260208710611c43570160051c019061342b565b8a611866565b015190508a80611832565b908b9350601f1983169160656000527f8ff97419363ffd7000167f130ef7168fbea05faf9251824ca5043f113cc6a7c79260005b818110611d9b57508411611d82575b505050811b01606555611847565b015160001960f88460031b161c191690558a8080611d74565b8284015185558e969094019360209384019301611d65565b611dfa9060656000527f8ff97419363ffd7000167f130ef7168fbea05faf9251824ca5043f113cc6a7c78780860160051c82019260208710611c43570160051c019061342b565b8b61181c565b61ffff191661010117600055886117e0565b60405162461bcd60e51b815260206004820152602e60248201527f496e697469616c697a61626c653a20636f6e747261637420697320616c72656160448201526d191e481a5b9a5d1a585b1a5e995960921b6064820152608490fd5b50303b1580156117c65750600160ff8616146117c6565b50600160ff8616106117bf565b3461032257602036600319011261032257600435600052610193602052602060018060a01b0360406000205416604051908152f35b3461032257611ed536612981565b611edd612def565b611ee56135e2565b6000828152606760205260409020546001600160a01b0316156102f3576102c27f459157ba24c7ab9878b165ef465fa6ae2ab42bcd8445f576be378768b0c4730991836000526101928060205261029d826005604060002001613442565b34610322576000366003190112610322577f00000000000000000000000000000000000000000000000000000000000000006001600160a01b03163003611f9c5760206040516000805160206139468339815191528152f35b60405162461bcd60e51b815260206004820152603860248201527f555550535570677261646561626c653a206d757374206e6f742062652063616c60448201527f6c6564207468726f7567682064656c656761746563616c6c00000000000000006064820152608490fd5b60403660031901126103225761201b612825565b6024356001600160401b0381116103225761203a90369060040161293a565b906001600160a01b037f0000000000000000000000000000000000000000000000000000000000000000811690612073308314156130b5565b612090600080516020613946833981519152928284541614613116565b612098612a93565b7f4910fdfa16fed3260ed0e7147f7cc6da11a60208b5b9406d12a635614ffd91435460ff16156120ce5750506105a79150613177565b6040516352d1902d60e01b81526020939291831691908481600481865afa6000918161225b575b506121565760405162461bcd60e51b815260048101869052602e60248201527f45524331393637557067726164653a206e657720696d706c656d656e7461746960448201526d6f6e206973206e6f74205555505360901b6064820152608490fd5b036122045761216482613177565b7fbc7cd75a20ee27fd9adebab32041f755214dbc6bffa90cc0225b39da2e5c2d3b600080a28251158015906121fc575b61219a57005b6000806105a794604051946121ae866128c8565b602786527f416464726573733a206c6f772d6c6576656c2064656c65676174652063616c6c81870152660819985a5b195960ca1b604087015281519101845af46121f6613253565b91613283565b506001612194565b60405162461bcd60e51b815260048101849052602960248201527f45524331393637557067726164653a20756e737570706f727465642070726f786044820152681a58589b195555525160ba1b6064820152608490fd5b9091508581813d8311612283575b61227381836128fe565b81010312610322575190876120f5565b503d612269565b612851565b34610322576000366003190112610322576122a8612caa565b60c95460ff8116156122e75760ff191660c9557f5db9ee0a495bf2e6ff9c91a7834c1ba4fdd244a5e8aa4e537bd38aeae4b073aa6020604051338152a1005b60405162461bcd60e51b815260206004820152601460248201527314185d5cd8589b194e881b9bdd081c185d5cd95960621b6044820152606490fd5b34610322576020806003193601126103225761233d612825565b6001600160a01b03917f00000000000000000000000000000000000000000000000000000000000000008316612375308214156130b5565b612392600080516020613946833981519152918583541614613116565b61239a612a93565b604051936123a7856128ad565b600085527f4910fdfa16fed3260ed0e7147f7cc6da11a60208b5b9406d12a635614ffd91435460ff16156123e2575050506105a79150613177565b83929316906040516352d1902d60e01b81528481600481865afa600091816124b1575b506124665760405162461bcd60e51b815260048101869052602e60248201527f45524331393637557067726164653a206e657720696d706c656d656e7461746960448201526d6f6e206973206e6f74205555505360901b6064820152608490fd5b036122045761247482613177565b7fbc7cd75a20ee27fd9adebab32041f755214dbc6bffa90cc0225b39da2e5c2d3b600080a28251158015906124a95761219a57005b506000612194565b9091508581813d83116124d9575b6124c981836128fe565b8101031261032257519087612405565b503d6124bf565b34610322576040366003190112610322576124f961283b565b336001600160a01b03821603612515576105a79060043561303f565b60405162461bcd60e51b815260206004820152602f60248201527f416363657373436f6e74726f6c3a2063616e206f6e6c792072656e6f756e636560448201526e103937b632b9903337b91039b2b63360891b6064820152608490fd5b346103225760403660031901126103225760043561258e61283b565b8160005260976020526125a8600160406000200154612f34565b81600052609760205260406000209060018060a01b0316908160005260205260ff60406000205416156125d757005b8160005260976020526040600020816000526020526040600020600160ff198254161790553391600080516020613926833981519152600080a4005b346103225760203660031901126103225760043560005260976020526020600160406000200154604051908152f35b346103225760403660031901126103225761109e612825565b3461032257602036600319011261032257600435600081815260676020526040902054612692906001600160a01b03161515613207565b6000526069602052602060018060a01b0360406000205416604051908152f35b346103225760003660031901126103225760405160006065546126d4816129b3565b8084529060019081811690811561141257506001146126fd57610a2e84610f9b818603826128fe565b6065600090815292507f8ff97419363ffd7000167f130ef7168fbea05faf9251824ca5043f113cc6a7c75b828410612740575050508101602001610f9b826113a7565b80546020858701810191909152909301928101612728565b34610322576020366003190112610322576004359063ffffffff60e01b821680920361032257602091637965db0b60e01b811490811561279a575b5015158152f35b6380ac58cd60e01b8114915081156127cc575b81156127bb575b5083612793565b6301ffc9a760e01b149050836127b4565b635b5e139f60e01b811491506127ad565b60005b8381106127f05750506000910152565b81810151838201526020016127e0565b90602091612819815180928185528580860191016127dd565b601f01601f1916010190565b600435906001600160a01b038216820361032257565b602435906001600160a01b038216820361032257565b34610322576060366003190112610322576001600160a01b0360043581811603610322576024359081160361032257604051638cd22d1960e01b8152600490fd5b60e081019081106001600160401b038211176102dd57604052565b602081019081106001600160401b038211176102dd57604052565b606081019081106001600160401b038211176102dd57604052565b608081019081106001600160401b038211176102dd57604052565b90601f801991011681019081106001600160401b038211176102dd57604052565b6001600160401b0381116102dd57601f01601f191660200190565b81601f82011215610322578035906129518261291f565b9261295f60405194856128fe565b8284526020838301011161032257816000926020809301838601378301015290565b9060406003198301126103225760043591602435906001600160401b038211610322576129b09160040161293a565b90565b90600182811c921680156129e3575b60208310146129cd57565b634e487b7160e01b600052602260045260246000fd5b91607f16916129c2565b9060405191826000825492612a01846129b3565b908184526001948581169081600014612a705750600114612a2d575b5050612a2b925003836128fe565b565b9093915060005260209081600020936000915b818310612a58575050612a2b93508201013880612a1d565b85548884018501529485019487945091830191612a40565b915050612a2b94506020925060ff191682840152151560051b8201013880612a1d565b3360009081527f75ef4a815c49ed748e152e890233829acb868956b95bda132b61406c3628008c602090815260408083205490927f189ab7a9244df0848122154315af71fe140f3db0fe014031783b0946b8c9d2e39160ff1615612af75750505050565b612b003361332d565b91845190612b0d826128e3565b60428252848201926060368537825115612c965760308453825190600191821015612c965790607860218501536041915b818311612c2857505050612be657604861091c938693612bca93612bbb985198899376020b1b1b2b9b9a1b7b73a3937b61d1030b1b1b7bab73a1604d1b8a860152612b92815180928c6037890191016127dd565b8401917001034b99036b4b9b9b4b733903937b6329607d1b6037840152518093868401906127dd565b010360288101875201856128fe565b5192839262461bcd60e51b845260048401526024830190612800565b60648486519062461bcd60e51b825280600483015260248201527f537472696e67733a20686578206c656e67746820696e73756666696369656e746044820152fd5b909192600f81166010811015612c82576f181899199a1a9b1b9c1cb0b131b232b360811b901a612c58858761331c565b5360041c928015612c6e57600019019190612b3e565b634e487b7160e01b82526011600452602482fd5b634e487b7160e01b83526032600452602483fd5b634e487b7160e01b81526032600452602490fd5b3360009081527f9805bb80c0cb3b8457cbce774d5adda6e717284b7d1e937eb2fdc8bbff924719602090815260408083205490927fa49807205ce4d355092ef5a8a18f56e8913cf4a201fbe287825b095693c217759160ff1615612d0e5750505050565b612d173361332d565b91845190612d24826128e3565b60428252848201926060368537825115612c965760308453825190600191821015612c965790607860218501536041915b818311612da957505050612be657604861091c938693612bca93612bbb985198899376020b1b1b2b9b9a1b7b73a3937b61d1030b1b1b7bab73a1604d1b8a860152612b92815180928c6037890191016127dd565b909192600f81166010811015612c82576f181899199a1a9b1b9c1cb0b131b232b360811b901a612dd9858761331c565b5360041c928015612c6e57600019019190612d55565b3360009081527f81bcdf06b56c0ed62a68a6ae231e66722c27e6665c84ec0015693a6d86f2bb93602090815260408083205490927f9f2df0fed2c77648de5860a4cc508cd0818c85b8b8a1ab4ceeef8d981c8956a69160ff1615612e535750505050565b612e5c3361332d565b91845190612e69826128e3565b60428252848201926060368537825115612c965760308453825190600191821015612c965790607860218501536041915b818311612eee57505050612be657604861091c938693612bca93612bbb985198899376020b1b1b2b9b9a1b7b73a3937b61d1030b1b1b7bab73a1604d1b8a860152612b92815180928c6037890191016127dd565b909192600f81166010811015612c82576f181899199a1a9b1b9c1cb0b131b232b360811b901a612f1e858761331c565b5360041c928015612c6e57600019019190612e9a565b60009080825260209060978252604092838120338252835260ff848220541615612f5e5750505050565b612f673361332d565b91845190612f74826128e3565b60428252848201926060368537825115612c965760308453825190600191821015612c965790607860218501536041915b818311612ff957505050612be657604861091c938693612bca93612bbb985198899376020b1b1b2b9b9a1b7b73a3937b61d1030b1b1b7bab73a1604d1b8a860152612b92815180928c6037890191016127dd565b909192600f81166010811015612c82576f181899199a1a9b1b9c1cb0b131b232b360811b901a613029858761331c565b5360041c928015612c6e57600019019190612fa5565b906000918083526097602052604083209160018060a01b03169182845260205260ff60408420541661307057505050565b8083526097602052604083208284526020526040832060ff1981541690557ff6391f5c32d9c69d2a47ea670b442974b53935d1edc7fd64eb21e047a839171b339380a4565b156130bc57565b60405162461bcd60e51b815260206004820152602c60248201527f46756e6374696f6e206d7573742062652063616c6c6564207468726f7567682060448201526b19195b1959d85d1958d85b1b60a21b6064820152608490fd5b1561311d57565b60405162461bcd60e51b815260206004820152602c60248201527f46756e6374696f6e206d7573742062652063616c6c6564207468726f7567682060448201526b6163746976652070726f787960a01b6064820152608490fd5b803b156131ac5760008051602061394683398151915280546001600160a01b0319166001600160a01b03909216919091179055565b60405162461bcd60e51b815260206004820152602d60248201527f455243313936373a206e657720696d706c656d656e746174696f6e206973206e60448201526c1bdd08184818dbdb9d1c9858dd609a1b6064820152608490fd5b1561320e57565b60405162461bcd60e51b815260206004820152601860248201527f4552433732313a20696e76616c696420746f6b656e20494400000000000000006044820152606490fd5b3d1561327e573d906132648261291f565b9161327260405193846128fe565b82523d6000602084013e565b606090565b919290156132e55750815115613297575090565b3b156132a05790565b60405162461bcd60e51b815260206004820152601d60248201527f416464726573733a2063616c6c20746f206e6f6e2d636f6e74726163740000006044820152606490fd5b8251909150156132f85750805190602001fd5b60405162461bcd60e51b81526020600482015290819061091c906024830190612800565b9081518110156102c7570160200190565b6040519061333a826128c8565b602a82526020820160403682378251156102c7576030905381516001908110156102c757607860218401536029905b8082116133bd5750506133795790565b606460405162461bcd60e51b815260206004820152602060248201527f537472696e67733a20686578206c656e67746820696e73756666696369656e746044820152fd5b9091600f81166010811015613416576f181899199a1a9b1b9c1cb0b131b232b360811b901a6133ec848661331c565b5360041c918015613401576000190190613369565b60246000634e487b7160e01b81526011600452fd5b60246000634e487b7160e01b81526032600452fd5b818110613436575050565b6000815560010161342b565b91909182516001600160401b0381116102dd5761345f82546129b3565b601f8111613509575b50602080601f83116001146134a557508192939460009261349a575b50508160011b916000199060031b1c1916179055565b015190503880613484565b90601f198316958460005282600020926000905b8882106134f1575050836001959697106134d8575b505050811b019055565b015160001960f88460031b161c191690553880806134ce565b806001859682949686015181550195019301906134b9565b61353690836000526020600020601f840160051c8101916020851061353c575b601f0160051c019061342b565b38613468565b9091508190613529565b1561354d57565b60405162461bcd60e51b815260206004820152602b60248201527f496e697469616c697a61626c653a20636f6e7472616374206973206e6f74206960448201526a6e697469616c697a696e6760a81b6064820152608490fd5b60001981146135b55760010190565b634e487b7160e01b600052601160045260246000fd5b6001600160401b0381116102dd5760051b60200190565b60ff60c954166135ee57565b60405162461bcd60e51b815260206004820152601060248201526f14185d5cd8589b194e881c185d5cd95960821b6044820152606490fd5b60809060208152603260208201527f4552433732313a207472616e7366657220746f206e6f6e20455243373231526560408201527131b2b4bb32b91034b6b83632b6b2b73a32b960711b60608201520190565b1561368057565b60405162461bcd60e51b815260206004820152601c60248201527f4552433732313a20746f6b656e20616c7265616479206d696e746564000000006044820152606490fd5b909190803b156137b5576020604051809281630a85bd0160e11b968782523360048301528161370e60009889938460248501526044840152608060648401526084830190612800565b03926001600160a01b03165af190829082613766575b505061375857613732613253565b805190816137535760405162461bcd60e51b81528061091c60048201613626565b602001fd5b6001600160e01b0319161490565b909192506020813d82116137ad575b81613782602093836128fe565b810103126137a95751906001600160e01b0319821682036137a65750903880613724565b80fd5b5080fd5b3d9150613775565b505050600190565b806000917a184f03e93ff9f4daa797ed6e38ed64bf6a1f01000000000000000080821015613917575b506d04ee2d6d415b85acef810000000080831015613908575b50662386f26fc10000808310156138f9575b506305f5e100808310156138ea575b50612710808310156138db575b5060648210156138cb575b600a809210156138c1575b600190816021818601956138568761291f565b9661386460405198896128fe565b808852613873601f199161291f565b01366020890137860101905b61388b575b5050505090565b600019019083906f181899199a1a9b1b9c1cb0b131b232b360811b8282061a8353049182156138bc5791908261387f565b613884565b9160010191613843565b9190606460029104910191613838565b6004919392049101913861382d565b60089193920491019138613820565b60109193920491019138613811565b602091939204910191386137ff565b6040935081049150386137e656fe2f8788117e7eff1d82e926ec794901d17c78024a50270940304540a733656f0d360894a13ba1a3210667c828492db98dca3e2076cc3735a920a3ca505d382bbca26469706673582212207acd8f1f37f7b7a76ca0139d5a1bf1885008a668fbf57e812843ff467ad8c07c64736f6c63430008140033",
  "linkReferences": {},
  "deployedLinkReferences": {}
}